{
  "contractName": "register",
  "abi": [
    {
      "inputs": [],
      "stateMutability": "nonpayable",
      "type": "constructor"
    },
    {
      "inputs": [
        {
          "internalType": "address",
          "name": "a",
          "type": "address"
        },
        {
          "internalType": "uint256",
          "name": "p",
          "type": "uint256"
        }
      ],
      "name": "loginadmin",
      "outputs": [
        {
          "internalType": "bool",
          "name": "",
          "type": "bool"
        }
      ],
      "stateMutability": "view",
      "type": "function",
      "constant": true
    },
    {
      "inputs": [
        {
          "internalType": "address",
          "name": "customer",
          "type": "address"
        },
        {
          "internalType": "string",
          "name": "name",
          "type": "string"
        },
        {
          "internalType": "string",
          "name": "email",
          "type": "string"
        },
        {
          "internalType": "string",
          "name": "mobile",
          "type": "string"
        },
        {
          "internalType": "uint256",
          "name": "password1",
          "type": "uint256"
        }
      ],
      "name": "registeruser",
      "outputs": [],
      "stateMutability": "nonpayable",
      "type": "function"
    },
    {
      "inputs": [],
      "name": "viewusers",
      "outputs": [
        {
          "internalType": "address[]",
          "name": "",
          "type": "address[]"
        },
        {
          "internalType": "string[]",
          "name": "",
          "type": "string[]"
        },
        {
          "internalType": "string[]",
          "name": "",
          "type": "string[]"
        },
        {
          "internalType": "string[]",
          "name": "",
          "type": "string[]"
        },
        {
          "internalType": "uint256[]",
          "name": "",
          "type": "uint256[]"
        }
      ],
      "stateMutability": "view",
      "type": "function",
      "constant": true
    },
    {
      "inputs": [
        {
          "internalType": "address",
          "name": "username",
          "type": "address"
        },
        {
          "internalType": "uint256",
          "name": "password2",
          "type": "uint256"
        }
      ],
      "name": "loginuser",
      "outputs": [
        {
          "internalType": "bool",
          "name": "",
          "type": "bool"
        }
      ],
      "stateMutability": "view",
      "type": "function",
      "constant": true
    }
  ],
  "bytecode": "0x608060405234801561001057600080fd5b50336000806101000a81548173ffffffffffffffffffffffffffffffffffffffff021916908373ffffffffffffffffffffffffffffffffffffffff1602179055506104d26001819055506111b7806100696000396000f3fe608060405234801561001057600080fd5b506004361061004c5760003560e01c8063365c9f941461005157806378a78f4014610081578063a46dec8b1461009d578063ced460bd146100bf575b600080fd5b61006b6004803603810190610066919061083f565b6100ef565b604051610078919061089a565b60405180910390f35b61009b600480360381019061009691906109fb565b610167565b005b6100a5610348565b6040516100b6959493929190610d87565b60405180910390f35b6100d960048036038101906100d4919061083f565b6106be565b6040516100e6919061089a565b60405180910390f35b60008060009054906101000a900473ffffffffffffffffffffffffffffffffffffffff1673ffffffffffffffffffffffffffffffffffffffff168373ffffffffffffffffffffffffffffffffffffffff1614801561014e575060015482145b1561015c5760019050610161565b600090505b92915050565b600760008673ffffffffffffffffffffffffffffffffffffffff1673ffffffffffffffffffffffffffffffffffffffff16815260200190815260200160002060009054906101000a900460ff16156101be57600080fd5b6001600760008773ffffffffffffffffffffffffffffffffffffffff1673ffffffffffffffffffffffffffffffffffffffff16815260200190815260200160002060006101000a81548160ff0219169083151502179055506002859080600181540180825580915050600190039060005260206000200160009091909190916101000a81548173ffffffffffffffffffffffffffffffffffffffff021916908373ffffffffffffffffffffffffffffffffffffffff1602179055506003849080600181540180825580915050600190039060005260206000200160009091909190915090816102ad9190611009565b506004839080600181540180825580915050600190039060005260206000200160009091909190915090816102e29190611009565b506005829080600181540180825580915050600190039060005260206000200160009091909190915090816103179190611009565b5060068190806001815401808255809150506001900390600052602060002001600090919091909150555050505050565b606080606080606060026003600460056006848054806020026020016040519081016040528092919081815260200182805480156103db57602002820191906000526020600020905b8160009054906101000a900473ffffffffffffffffffffffffffffffffffffffff1673ffffffffffffffffffffffffffffffffffffffff1681526020019060010190808311610391575b5050505050945083805480602002602001604051908101604052809291908181526020016000905b828210156104af57838290600052602060002001805461042290610e2c565b80601f016020809104026020016040519081016040528092919081815260200182805461044e90610e2c565b801561049b5780601f106104705761010080835404028352916020019161049b565b820191906000526020600020905b81548152906001019060200180831161047e57829003601f168201915b505050505081526020019060010190610403565b50505050935082805480602002602001604051908101604052809291908181526020016000905b828210156105825783829060005260206000200180546104f590610e2c565b80601f016020809104026020016040519081016040528092919081815260200182805461052190610e2c565b801561056e5780601f106105435761010080835404028352916020019161056e565b820191906000526020600020905b81548152906001019060200180831161055157829003601f168201915b5050505050815260200190600101906104d6565b50505050925081805480602002602001604051908101604052809291908181526020016000905b828210156106555783829060005260206000200180546105c890610e2c565b80601f01602080910402602001604051908101604052809291908181526020018280546105f490610e2c565b80156106415780601f1061061657610100808354040283529160200191610641565b820191906000526020600020905b81548152906001019060200180831161062457829003601f168201915b5050505050815260200190600101906105a9565b505050509150808054806020026020016040519081016040528092919081815260200182805480156106a657602002820191906000526020600020905b815481526020019060010190808311610692575b50505050509050945094509450945094509091929394565b600080600090505b60028054905081101561078b57600281815481106106e7576106e66110db565b5b9060005260206000200160009054906101000a900473ffffffffffffffffffffffffffffffffffffffff1673ffffffffffffffffffffffffffffffffffffffff168473ffffffffffffffffffffffffffffffffffffffff161480156107695750826006828154811061075c5761075b6110db565b5b9060005260206000200154145b15610778576001915050610791565b808061078390611139565b9150506106c6565b60009150505b92915050565b6000604051905090565b600080fd5b600080fd5b600073ffffffffffffffffffffffffffffffffffffffff82169050919050565b60006107d6826107ab565b9050919050565b6107e6816107cb565b81146107f157600080fd5b50565b600081359050610803816107dd565b92915050565b6000819050919050565b61081c81610809565b811461082757600080fd5b50565b60008135905061083981610813565b92915050565b60008060408385031215610856576108556107a1565b5b6000610864858286016107f4565b92505060206108758582860161082a565b9150509250929050565b60008115159050919050565b6108948161087f565b82525050565b60006020820190506108af600083018461088b565b92915050565b600080fd5b600080fd5b6000601f19601f8301169050919050565b7f4e487b7100000000000000000000000000000000000000000000000000000000600052604160045260246000fd5b610908826108bf565b810181811067ffffffffffffffff82111715610927576109266108d0565b5b80604052505050565b600061093a610797565b905061094682826108ff565b919050565b600067ffffffffffffffff821115610966576109656108d0565b5b61096f826108bf565b9050602081019050919050565b82818337600083830152505050565b600061099e6109998461094b565b610930565b9050828152602081018484840111156109ba576109b96108ba565b5b6109c584828561097c565b509392505050565b600082601f8301126109e2576109e16108b5565b5b81356109f284826020860161098b565b91505092915050565b600080600080600060a08688031215610a1757610a166107a1565b5b6000610a25888289016107f4565b955050602086013567ffffffffffffffff811115610a4657610a456107a6565b5b610a52888289016109cd565b945050604086013567ffffffffffffffff811115610a7357610a726107a6565b5b610a7f888289016109cd565b935050606086013567ffffffffffffffff811115610aa057610a9f6107a6565b5b610aac888289016109cd565b9250506080610abd8882890161082a565b9150509295509295909350565b600081519050919050565b600082825260208201905092915050565b6000819050602082019050919050565b610aff816107cb565b82525050565b6000610b118383610af6565b60208301905092915050565b6000602082019050919050565b6000610b3582610aca565b610b3f8185610ad5565b9350610b4a83610ae6565b8060005b83811015610b7b578151610b628882610b05565b9750610b6d83610b1d565b925050600181019050610b4e565b5085935050505092915050565b600081519050919050565b600082825260208201905092915050565b6000819050602082019050919050565b600081519050919050565b600082825260208201905092915050565b60005b83811015610bee578082015181840152602081019050610bd3565b60008484015250505050565b6000610c0582610bb4565b610c0f8185610bbf565b9350610c1f818560208601610bd0565b610c28816108bf565b840191505092915050565b6000610c3f8383610bfa565b905092915050565b6000602082019050919050565b6000610c5f82610b88565b610c698185610b93565b935083602082028501610c7b85610ba4565b8060005b85811015610cb75784840389528151610c988582610c33565b9450610ca383610c47565b925060208a01995050600181019050610c7f565b50829750879550505050505092915050565b600081519050919050565b600082825260208201905092915050565b6000819050602082019050919050565b610cfe81610809565b82525050565b6000610d108383610cf5565b60208301905092915050565b6000602082019050919050565b6000610d3482610cc9565b610d3e8185610cd4565b9350610d4983610ce5565b8060005b83811015610d7a578151610d618882610d04565b9750610d6c83610d1c565b925050600181019050610d4d565b5085935050505092915050565b600060a0820190508181036000830152610da18188610b2a565b90508181036020830152610db58187610c54565b90508181036040830152610dc98186610c54565b90508181036060830152610ddd8185610c54565b90508181036080830152610df18184610d29565b90509695505050505050565b7f4e487b7100000000000000000000000000000000000000000000000000000000600052602260045260246000fd5b60006002820490506001821680610e4457607f821691505b602082108103610e5757610e56610dfd565b5b50919050565b60008190508160005260206000209050919050565b60006020601f8301049050919050565b600082821b905092915050565b600060088302610ebf7fffffffffffffffffffffffffffffffffffffffffffffffffffffffffffffffff82610e82565b610ec98683610e82565b95508019841693508086168417925050509392505050565b6000819050919050565b6000610f06610f01610efc84610809565b610ee1565b610809565b9050919050565b6000819050919050565b610f2083610eeb565b610f34610f2c82610f0d565b848454610e8f565b825550505050565b600090565b610f49610f3c565b610f54818484610f17565b505050565b5b81811015610f7857610f6d600082610f41565b600181019050610f5a565b5050565b601f821115610fbd57610f8e81610e5d565b610f9784610e72565b81016020851015610fa6578190505b610fba610fb285610e72565b830182610f59565b50505b505050565b600082821c905092915050565b6000610fe060001984600802610fc2565b1980831691505092915050565b6000610ff98383610fcf565b9150826002028217905092915050565b61101282610bb4565b67ffffffffffffffff81111561102b5761102a6108d0565b5b6110358254610e2c565b611040828285610f7c565b600060209050601f8311600181146110735760008415611061578287015190505b61106b8582610fed565b8655506110d3565b601f19841661108186610e5d565b60005b828110156110a957848901518255600182019150602085019450602081019050611084565b868310156110c657848901516110c2601f891682610fcf565b8355505b6001600288020188555050505b505050505050565b7f4e487b7100000000000000000000000000000000000000000000000000000000600052603260045260246000fd5b7f4e487b7100000000000000000000000000000000000000000000000000000000600052601160045260246000fd5b600061114482610809565b91507fffffffffffffffffffffffffffffffffffffffffffffffffffffffffffffffff82036111765761117561110a565b5b60018201905091905056fea2646970667358221220d7b032ec796770672b2cced27002e4e7a7ee1feeeed7b2ee9b1e1cb20d6ed18764736f6c63430008110033",
  "immutableReferences": {},
  "source": "// SPDX-License-Identifier: MIT\npragma solidity >=0.4.22 <0.9.0;\n\ncontract register {\n\n  address admin;\n  uint password;\n  \n  address[] _customers;\n  string[] _names;\n  string[] _emails;\n  string[] _mobiles;\n  uint[] _passwords;\n\n  mapping(address=>bool) users;\n\n  constructor() public {\n    admin=msg.sender;\n    password=1234;\n  }\n\n  function loginadmin(address a,uint p) public view returns(bool) {\n\n    if(a==admin && p==password){\n      return true;\n    }\n    else{\n      return false;\n    }\n  }\n\n  function registeruser(address customer,string memory name,string memory email,string memory mobile,uint password1) public {\n\n      require(!users[customer]);\n\n      users[customer]=true;\n      _customers.push(customer);\n      _names.push(name);\n      _emails.push(email);\n      _mobiles.push(mobile);\n      _passwords.push(password1);\n  }\n\n  function viewusers() public view returns(address[] memory,string[] memory,string[] memory,string[] memory,uint[] memory){\n    return(_customers,_names,_emails,_mobiles,_passwords);\n  }\n\n  function loginuser(address username,uint password2) public view returns(bool){\n\n    uint i;\n\n    for(i=0;i<_customers.length;i++){\n      if(username==_customers[i] && _passwords[i]==password2){\n        return true;\n      }\n    }\n    return false;\n  }\n}\n",
  "sourcePath": "C:\\Users\\lenovo\\Desktop\\hotel reservation system using python and php\\contracts\\register.sol",
  "compiler": {
    "name": "solc",
    "version": "0.8.17+commit.8df45f5f.Emscripten.clang"
  },
  "schemaVersion": "3.4.11",
  "updatedAt": "2023-02-03T05:24:01.992Z",
  "networkType": "ethereum",
  "devdoc": {
    "kind": "dev",
    "methods": {},
    "version": 1
  },
  "userdoc": {
    "kind": "user",
    "methods": {},
    "version": 1
  }
}